:020000040000FA
:060000000A128A110C280F
:10000800FE00030EF1000A08F2000A128A11952870
:100018000A128A110F2883010A128A1166280330EE
:100028008316031788008901FF30831603138500A0
:10003800870188018312031387018801831603133C
:100048000F178F160F160F149F131F129F1283126C
:1000580003131F083F3980389F00C3309F051F14C2
:100068002130F300F30B362883160313071588167F
:10007800F93092003F308312031397051708F039BF
:100088000C3897000F309500CF3097050C309D0045
:1000980064309B008C100330920412158C1C552878
:1000A800562852288C1083160313071188128B17B1
:1000B8000B178B160B118B160B100C1783120313CF
:1000C8000C1308000A128A1113200A128A118312CB
:1000D80003139F18702871286B281F0CF400740CE8
:1000E8000F39003A031D79287A2887281F08C33951
:1000F80004389F004230F400F40B8028000083127B
:1001080003139F146B28C3309F054230F400F40B8F
:100118008B280000831203139F146B280A128A117C
:100128000C28831203130C1F9A289B28AA281F0C3B
:10013800F000700C0F39003A031DA328A428A82842
:100148001E0895000C13A92808140C1372088A00BD
:0A015800710E8300FE0E7E0E0900FA
:04400E00D438FF3F64
:00000001FF
